:100000000C9434000C9449000C9449000C94490061
:100010000C9449000C9449000C9449000C9449003C
:100020000C9449000C9449000C9449000C9449002C
:100030000C9449000C9449000C9449000C9449001C
:100040000C9449000C9449000C9449000C9449000C
:100050000C9449000C9449000C9449000C944900FC
:100060000C9449000C94490011241FBECFEFD8E036
:10007000DEBFCDBF11E0A0E0B1E0EAEBF0E002C0EE
:1000800005900D92AC30B107D9F70E944B000C944B
:100090005B000C940000E0E0F1E08CE08E0F9191A9
:1000A0002091C00025FFFCCF9093C6008E13F7CFA0
:0A00B00080E090E00895F894FFCF7F
:0C00BA0068656C6C6F776F726C642100DD
:00000001FF
