S00E0000436F64655F312E737265630B
S11300000C943A000C9444000C9444000C94440066
S11300100C9444000C9444000C9444000C9444004C
S11300200C9444000C9444000C9444000C9444003C
S11300300C9444000C9444000C9444000C9444002C
S11300400C9444000C9444000C9444000C9444001C
S11300500C9444000C9444000C9444000C9444000C
S11300600C9444000C94440068656C6C6F776F7258
S11300706C64210011241FBECFEFD8E0DEBFCDBFDA
S11300800E9446000C944E000C940000E2E7F0E05D
S1130090E491E093C60080E090E00895F894FFCFE7
S9030000FC
